:10000000F8FF0020110400002B3600002B36000002
:100010002B3600002B3600002B3600002B3600005C
:100020002B3600002B3600002B3600002B3600004C
:100030002B3600002B3600002B3600002B3600003C
:100040002B3600002B3600002B3600002B3600002C
:100050002B3600002B3600002B3600002B3600001C
:100060002B3600002B3600002B3600002B3600000C
:100070002B3600002B3600002B3600002B360000FC
:100080002B3600002B3600002B3600002B360000EC
:100090002B3600002B3600002B3600002B360000DC
:1000A0002B3600002B3600002B3600002B360000CC
:1000B0002B3600002B3600002B3600002B360000BC
:1000C0002B3600002B3600002B3600002B360000AC
:1000D0002B3600002B3600002B3600002B3600009C
:1000E0002B3600002B3600002B3600002B3600008C
:1000F0002B3600002B3600002B3600002B3600007C
:100100002B3600002B3600002B3600002B3600006B
:100110002B3600002B3600002B3600002B3600005B
:100120002B3600002B3600002B3600002B3600004B
:100130002B3600002B3600002B3600002B3600003B
:100140002B3600002B3600002B3600002B3600002B
:100150002B3600002B3600002B3600002B3600001B
:100160002B3600002B3600002B3600002B3600000B
:100170002B3600002B3600002B3600002B360000FB
:100180002B3600002B3600002B3600002B360000EB
:100190002B3600002B3600002B36000079B600000D
:1001A0007BB70000D3B800002B3600002B360000D0
:1001B0002B3600002B3600002B3600002B360000BB
:1001C0002B3600002B3600002B3600002B360000AB
:1001D0002B3600002B3600002B3600002B3600009B
:1001E0002B3600002B3600002B3600002B3600008B
:10040000FFFFFFFFFFFFFFFFFFFFFFFFFEFFFFFFFD
:1004100062B64FF000004FF000014FF000024FF0C5
:1004200000034FF000044FF000054FF000064FF0BE
:1004300000074FF000084FF000094FF0000A4FF09E
:10044000000B4FF0000C09F047FFFEE72DE9F047E5
:10045000614862490978192202FB0104002500263F
:1004600000275FF000085FF000095FF0000A5A48BB
:100470005A490978192202FB010010F11801564867
:10048000564A1278192303FB020002F0ABFB00204E
:100490000700FFB2822F01DA7F1CFAE701208046B5
:1004A0005FFA88F8B8F1FA0F29DA4D480068C00AF7
:1004B00010F00100060000BF00BF00BF00BF00BF7A
:1004C00000BF00BF00BF00BF00BF00BF00BF00BF34
:1004D00000BF00BF00BF00BF00BFF6B25FFA89F9DE
:1004E0004E4505D084F80080641CD9F1010903E071
:1004F0006D1C6D1EDAF1010A18F10108D0E7FA202F
:100500002070BDE8F0872DE9F04100240025354E2C
:10051000314FDFF8C4803449344802F06AFB344973
:10052000304802F066FB00200400662C51DA2D48AA
:10053000642101FB0400060027486142192202FBE6
:10054000010000F6DD10070023486142192202FB7A
:10055000010000F6F51080460020050047452FD227
:100560003878002802D17878002829D0022095FB1D
:10057000F0F101FB1051002912D1787800280FD03A
:1005800078783978401A01280ADAB878002804D136
:100590007878FA2801D0787830607F1CAD1C0DE0A7
:1005A000387800280AD038783060361D0F4850F867
:1005B0002400401C0D4941F824006D1C7F1CCDE730
:1005C0000A4850F82400401E084941F82400641CE1
:1005D000ABE7BDE8F0810000C407FF1FED48FF1F37
:1005E00050F00F40041BFF1F001BFF1F6C19FF1F63
:1005F000D842FF1F2DE9F04FF3B0ADF5205D5FF05D
:10060000000800240020249000200C90002023905B
:100610005FF0000900201F9000201A900020229017
:1006200000202D9000201990002018900020169096
:100630000020129000202C9000202B9000202F9062
:1006400000202A90002005900020159000201E9088
:100650005FF0000A002029907CA842F2D87102F0D5
:10066000E1FFDFF8806DDFF87C0D08907CAF7CA89F
:100670000D907CA81090DFF8700D1D90DFF86C0DC8
:100680004990DFF86C0D1790DFF8640D289000207A
:100690008DF8090000208DF8080000208DF80B006F
:1006A00000208DF80A0000208DF89800DFF8440D36
:1006B0000E90DFF8440D2E9000200490002003904F
:1006C00063A8642102F0AEFF0DF5C67B63A82590F8
:1006D00000201C90002021900020099000201B90F9
:1006E00000200A9000200B9000201490002013900E
:1006F000002011900020279000202090002048909A
:1007000000200790002006904AA8642102F08AFF8A
:100710004AAD4AA80F900020DFF8D81C08600020DE
:10072000DFF8D01C48600020DFF8C81C886000207B
:10073000DFF8C01CC8600020DFF8B81C086100208A
:10074000DFF8B01C48610020DFF8A81C8861002099
:10075000DFF8A01C0877DFF88C0C0600DFF89C0C93
:1007600008907CA807000898864204D23068386058
:10077000361D3F1DF7E7DFF8881CDFF86C0C02F030
:1007800038FA00208046B8F1660F4CDA7CA8642164
:1007900001FB080007007CA8642101FB0800603011
:1007A0000D90002004000D98874239D23868002847
:1007B00002D17868002833D0022094FBF0F101FBCD
:1007C0001041002929D13868002826D03868FA2835
:1007D00023D07868002820D03868796888421CDAED
:1007E00078683968401A1C9021981C99884214DA5C
:1007F0001C982190CDF8248038687968081802F098
:1008000015FF0022DFF8FC3B02F028FF02F0F8FFA2
:100810001B903868149078681390641C3F1DC2E7E1
:1008200018F10108AFE714980790139806900998FB
:100830008046B8F1660F80F2A4807CA8642101FB99
:10084000080007007CA8642101FB080060300D90BF
:100850007CA8642101FB080010904AA805004AA862
:100860000F9062A94AA802F0C4F93868FA2802D0A9
:100870003868002800D184E0002004000D988742E9
:100880006CD23868002802D17868002866D002202F
:1008900094FBF0F101FB104100295CD1386800287D
:1008A00059D03868FA2856D07868002853D038686C
:1008B000796888424FDA38680799884203DB0698DE
:1008C000796888421FDA38680799884207DB7868B8
:1008D0000699884203DB06983968884213DA07983C
:1008E0003968884207DB06987968884203DB7868B4
:1008F0000799884207DA0798396888422BDB7868BD
:100900000699884227DB1097CDF8288011987968DE
:1009100008183968401A1190386828602D1D7868C9
:1009200028602D1D0D9817F10801884203D3B8687F
:1009300038603F1DF6E700207CA9642202FB081105
:10094000C86500207CA9642202FB08110866109883
:1009500007003F1F641E641C3F1D8FE74A980790E5
:100960004AA8050062A80F900F98854206D2286811
:10097000002803D0286806902D1DF5E718F101081E
:1009800057E714980790139806900998401E8046E0
:10099000B8F1010FC0F2A4807CA8642101FB08001B
:1009A00007007CA8642101FB080060300D907CA842
:1009B000642101FB080010904AA805004AA80F9086
:1009C00062A94AA802F015F93868FA2802D03868F6
:1009D000002800D184E0002004000D9887426CD2EA
:1009E0003868002802D17868002866D0022094FB7D
:1009F000F0F101FB104100295CD13868002859D082
:100A00003868FA2856D07868002853D03868796852
:100A100088424FDA38680799884203DB069879687C
:100A200088421FDA38680799884207DB7868069998
:100A3000884203DB06983968884213DA07983968D8
:100A4000884207DB06987968884203DB7868079953
:100A5000884207DA0798396888422BDB786806995C
:100A6000884227DB1097CDF82880119879680818FC
:100A70003968401A1190386828602D1D7868286000
:100A80002D1D0D9817F10801884203D3B86838600E
:100A90003F1DF6E700207CA9642202FB0811C8650F
:100AA00000207CA9642202FB081108661098070048
:100AB0003F1F641E641C3F1D8FE74A9807904AA899
:100AC000050062A80F900F98854206D2286800287A
:100AD00003D0286806902D1DF5E7B8F1010857E707
:100AE00011982799081820900A98002818D00B9878
:100AF000002815D00A980B99884211DB0A980B99A7
:100B0000081802F093FD0022DFF8F83802F0A6FD85
:100B100002F076FE09900A9832900B98339026E006
:100B20000A9800280BD10B98002808D009980B9937
:100B3000884204DB099832900B98339017E00A98AA
:100B400000280BD00B98002808D10A9809998842F0
:100B500004DB0A9832900998339008E00A980B99C0
:100B60000843002803D109983290099833900998D6
:100B700030901B98319014983490139835902098A9
:100B800036900998DFF8801B08601B98DFF8781B07
:100B900048603298DFF8701B88603398DFF8681B74
:100BA000C8603498DFF8601B08613598DFF8581B7F
:100BB00048613698DFF8501B886100201C900020A7
:100BC00021900020099000201B9000200A90002016
:100BD0000B90002014900020139000201190002012
:100BE00027900020209000208046B8F1660F4CDA54
:100BF0007CA8642101FB080007007CA8642101FB9C
:100C0000080060300D90002004000D98874239D212
:100C10003868002802D17868002833D0022094FB7D
:100C2000F0F101FB1041002929D13868002826D0B5
:100C30003868FA2823D07868002820D03868796886
:100C400088421CDA78683968401A1C9021981C99EF
:100C5000884214DA1C982190CDF82480386879688D
:100C6000081802F0E3FC0022DFF8983702F0F6FCE7
:100C700002F0C6FD1B903868149078681390641CCD
:100C80003F1DC2E718F10108AFE7149807901398C9
:100C9000069009988046B8F1660F80F2A4807CA87F
:100CA000642101FB080007007CA8642101FB080007
:100CB00060300D907CA8642101FB080010904AA8C8
:100CC00005004AA80F9062A94AA801F092FF38686F
:100CD000FA2802D03868002800D184E000200400FF
:100CE0000D9887426CD23868002802D178680028B5
:100CF00066D0022094FBF0F101FB104100295CD189
:100D00003868002859D03868FA2856D07868002802
:100D100053D03868796888424FDA38680799884232
:100D200003DB0698796888421FDA38680799884299
:100D300007DB78680699884203DB069839688842A1
:100D400013DA07983968884207DB06987968884281
:100D500003DB78680799884207DA07983968884280
:100D60002BDB78680699884227DB1097CDF828801E
:100D70001198796808183968401A11903868286005
:100D80002D1D786828602D1D0D9817F108018842E7
:100D900003D3B86838603F1DF6E700207CA96422C1
:100DA00002FB0811C86500207CA9642202FB08111F
:100DB0000866109807003F1F641E641C3F1D8FE7E4
:100DC0004A9807904AA8050062A80F900F9885429C
:100DD00006D22868002803D0286806902D1DF5E764
:100DE00018F1010857E7149807901398069009988E
:100DF000401E8046B8F1010FC0F2A4807CA8642197
:100E000001FB080007007CA8642101FB080060309A
:100E10000D907CA8642101FB080010904AA80500F1
:100E20004AA80F9062A94AA801F0E3FE3868FA28A0
:100E300002D03868002800D184E0002004000D981A
:100E400087426CD23868002802D17868002866D0C2
:100E5000022094FBF0F101FB104100295CD13868BD
:100E6000002859D03868FA2856D07868002853D01E
:100E70003868796888424FDA38680799884203DB16
:100E80000698796888421FDA38680799884207DB34
:100E900078680699884203DB06983968884213DA35
:100EA00007983968884207DB06987968884203DB2F
:100EB00078680799884207DA0798396888422BDBF7
:100EC00078680699884227DB1097CDF8288011981A
:100ED000796808183968401A1190386828602D1D03
:100EE000786828602D1D0D9817F10801884203D3FA
:100EF000B86838603F1DF6E700207CA9642202FB39
:100F00000811C86500207CA9642202FB081108664C
:100F1000109807003F1F641E641C3F1D8FE74A980E
:100F200007904AA8050062A80F900F98854206D244
:100F30002868002803D0286806902D1DF5E7B8F131
:100F4000010857E711982799081820900A98002857
:100F500018D00B98002815D00A980B99884211DBFD
:100F60000A980B99081802F061FB0022DFF894340C
:100F700002F074FB02F044FC09900A983A900B9836
:100F80003B9026E00A9800280BD10B98002808D047
:100F900009980B99884204DB09983A900B983B908A
:100FA00017E00A9800280BD00B98002808D10A985F
:100FB0000999884204DB0A983A9009983B9008E026
:100FC0000A980B990843002803D109983A90099888
:100FD0003B90099838901B98399014983C9013983E
:100FE0003D9020983E900998DFF81C1708621B98E6
:100FF000DFF8141748623A98DFF80C1788623B98BC
:10100000DFF80417C8623C98DFF8FC1608633D98C7
:10101000DFF8F41648633E98DFF8EC16886300208A
:101020001C90002021900020099000201B9000209F
:101030000A9000200B9000201490002013900020B4
:101040001190002027900020209000208046B8F1C9
:10105000660F4BDA7CA8642101FB080007007CA81E
:10106000642101FB080060300D90002004000D9801
:10107000874238D23868002802D17868002832D0F8
:10108000022094FBF0F101FB1041002928D13868BF
:10109000002825D03868FA2822D0786800281FD088
:1010A0003868796888421BDA78683968401A1C9079
:1010B00021981C99884213DA1C982190CDF824803D
:1010C00038687968081802F0B1FA0022CD4B02F0B6
:1010D000C5FA02F095FB1B9038681490786813905D
:1010E000641C3F1DC3E718F10108B0E7149807908E
:1010F0001398069009988046B8F1660F80F2A48094
:101100007CA8642101FB080007007CA8642101FB86
:10111000080060300D907CA8642101FB080010904D
:101120004AA805004AA80F9062A94AA801F061FDEB
:101130003868FA2802D03868002800D184E00020FE
:1011400004000D9887426CD23868002802D1786874
:10115000002866D0022094FBF0F101FB1041002929
:101160005CD13868002859D03868FA2856D0786899
:10117000002853D03868796888424FDA3868079970
:10118000884203DB0698796888421FDA3868079935
:10119000884207DB78680699884203DB069839683D
:1011A000884213DA07983968884207DB069879681D
:1011B000884203DB78680799884207DA079839681C
:1011C00088422BDB78680699884227DB1097CDF898
:1011D00028801198796808183968401A1190386881
:1011E00028602D1D786828602D1D0D9817F10801C5
:1011F000884203D3B86838603F1DF6E700207CA919
:10120000642202FB0811C86500207CA9642202FB4D
:1012100008110866109807003F1F641E641C3F1DDC
:101220008FE74A9807904AA8050062A80F900F9888
:10123000854206D22868002803D0286806902D1D14
:10124000F5E718F1010857E71498079013980690EE
:101250000998401E8046B8F1010FC0F2A4807CA816
:10126000642101FB080007007CA8642101FB080041
:1012700060300D907CA8642101FB080010904AA802
:1012800005004AA80F9062A94AA801F0B2FC38688C
:10129000FA2802D03868002800D184E00020040039
:1012A0000D9887426CD23868002802D178680028EF
:1012B00066D0022094FBF0F101FB104100295CD1C3
:1012C0003868002859D03868FA2856D0786800283D
:1012D00053D03868796888424FDA3868079988426D
:1012E00003DB0698796888421FDA386807998842D4
:1012F00007DB78680699884203DB069839688842DC
:1013000013DA07983968884207DB069879688842BB
:1013100003DB78680799884207DA079839688842BA
:101320002BDB78680699884227DB1097CDF8288058
:101330001198796808183968401A1190386828603F
:101340002D1D786828602D1D0D9817F10801884221
:1013500003D3B86838603F1DF6E700207CA96422FB
:1013600002FB0811C86500207CA9642202FB081159
:101370000866109807003F1F641E641C3F1D8FE71E
:101380004A9807904AA8050062A80F900F988542D6
:1013900006D22868002803D0286806902D1DF5E79E
:1013A000B8F1010857E711982799081820900A9872
:1013B000002829D00B98002826D00A980B9988423B
:1013C00022DB0A980B99081802F030F900220D4B25
:1013D00002F044F902F014FA09900A9842900B982E
:1013E000439038E0041BFF1FFC44FF1FDC42FF1F3B
:1013F0003C48FF1F1844FF1F9844FF1FD842FF1F9F
:101400002848FF1F0000E03F0A9800280BD10B98E6
:10141000002808D009980B99884204DB099842906B
:101420000B98439017E00A9800280BD00B980028DF
:1014300008D10A980999884204DB0A9842900998D1
:10144000439008E00A980B990843002803D10998B3
:10145000429009984390099840901B9841901498A5
:10146000449013984590209846900998A64908649E
:101470001B98A54948644298A34988644398A249A7
:10148000C8644498A049086545989F4948654698AE
:101490009D49886500208046B8F1660F59DADFF86B
:1014A0000C0B642101FB08000600DFF8000B64212F
:1014B00001FB080060300890002004000898864274
:1014C00044D23068002802D1706800283ED0022043
:1014D00094FBF0F101FB1041002934D13068002861
:1014E00031D03068FA282ED0706800282BD03068B0
:1014F0007168884227DA70683168401A2D902A98FE
:101500002D9988421FDA2D982A90CDF814803068E2
:101510007168081802F08AF80022DFF8943A02F0A5
:101520009DF802F06DF91590306816907068129071
:101530003068DFF8801A41F838007068DFF8741AF4
:1015400011EBC8014860641C361DB7E718F10108AB
:10155000A2E7169804901298039005980C900C98A6
:10156000662880F2A380DFF8440A0C99642202FB0B
:1015700001000600DFF8340A0C99642202FB010026
:1015800060300890DFF82C0A0C9910EBC1001D9018
:1015900063A8834663A825907BA963A801F029FB73
:1015A0003068FA2802D03068002800D17EE00020A0
:1015B00023900898864259D23068002802D170687A
:1015C000002853D02398022190FBF1F202FB110274
:1015D000002A46D13068002843D03068FA2840D02D
:1015E000706800283DD030687168884239DA306808
:1015F0000499884203DB0398716888421FDA3068D7
:101600000499884207DB70680399884203DB0398DA
:101610003168884213DA04983168884207DB0398FE
:101620007168884203DB70680499884207DA04987D
:101630003168884215DB70680399884211DB0C9889
:1016400019902C98716808183168401A2C903068ED
:10165000CBF800001BF1040B7068CBF800001BF105
:10166000040B2398401C2390361DA2E76398049036
:1016700063A883467BA825902598834509D2DBF88B
:101680000000002805D0DBF8000003901BF1040BDC
:10169000F2E704981D9908601D98001D1D9003989D
:1016A0001D9908600C98401C0C9058E716980490FF
:1016B0001298039005980C900C980128C0F2A58010
:1016C000DFF8E8080C99642202FB01000600DFF84D
:1016D000DC080C99642202FB010060300890DFF8FE
:1016E000D4080C9910EBC1001D9063A8834663A831
:1016F00025907BA963A801F07CFA3068FA2802D013
:101700003068002802D180E0F842FF1F00202390BB
:101710000898864259D23068002802D170680028A3
:1017200053D02398022190FBF1F202FB1102002A10
:1017300046D13068002843D03068FA2840D070681D
:1017400000283DD030687168884239DA30680499E1
:10175000884203DB0398716888421FDA3068049975
:10176000884207DB70680399884203DB039831687D
:10177000884213DA04983168884207DB039871685D
:10178000884203DB70680499884207DA049831685C
:10179000884215DB70680399884211DB0C98189019
:1017A0002B98716808183168401A2B903068CBF874
:1017B00000001BF1040B7068CBF800001BF1040B58
:1017C0002398401C2390361DA2E76398049063A8D9
:1017D00083467BA825902598834509D2DBF8000035
:1017E000002805D0DBF8000003901BF1040BF2E7A2
:1017F00004981D9908601D98001D1D9003981D995F
:1018000008600C98401E0C9056E72C982B990818ED
:101810002F902F98DFF8BC1C88611998002800F0E1
:10182000E6811898002800F0E281189819998842FA
:1018300080F2DD8119981899081801F0F7FE00224E
:10184000DFF86C3701F00AFF01F0DAFF0590059828
:10185000DFF8801C096C401A10F1050F21DB059898
:10186000DFF8701C096C401A06281ADADFF8640CDD
:10187000C06C002815D0DFF85C0C806C002810D0FC
:10188000DFF8500CC06C189988420ADB1998DFF811
:10189000441C896C884204DBDFF8380C006C05902E
:1018A00001E0059805901598DFF8281C496C401A4E
:1018B00010F1050F21DB1598DFF8181C496C401A50
:1018C00006281ADADFF80C0C006D002815D0DFF8B6
:1018D000040C406D002810D0DFF8F80B006D16994D
:1018E00088420ADB1298DFF8EC1B496D884204DB62
:1018F000DFF8E00B406C159001E0159815901298F8
:1019000016998842C0F250811298FA2840F04C8112
:1019100005980C900C98662845DADFF890060C992B
:10192000642202FB01000600DFF880060C996422A5
:1019300002FB0100603008903068FA2802D030685D
:10194000002800D12FE0002081460898864226D248
:101950003068002802D17068002820D0022099FB4E
:10196000F0F101FB1091002915D13068002812D048
:101970003068FA280FD0706800280CD03068716881
:10198000884208DA7068FA2803D11E98401C1E901D
:1019900001E01E981E9019F10109361DD5E70C983B
:1019A000401C0C90B6E705980C900C98002845D484
:1019B000DFF8F8050C99642202FB01000600DFF84D
:1019C000EC050C99642202FB01006030089030683D
:1019D000FA2802D03068002800D12FE0002081468C
:1019E0000898864226D23068002802D17068002804
:1019F00020D0022099FBF0F101FB1091002915D1B4
:101A00003068002812D03068FA280FD0706800289B
:101A10000CD030687168884208DA7068FA2803D1FF
:101A20001E98401C1E9001E01E981E9019F101099D
:101A3000361DD5E70C98401E0C90B6E716981F90FF
:101A400012981F998842C0F2AF8000208246059804
:101A50001A901A98662849DADFF850051A99642214
:101A600002FB01000600DFF844051A99642202FB1C
:101A70000100603008903068FA2802D030680028F1
:101A800000D133E000202290089886422AD23068A4
:101A9000002802D17068002824D02298022190FBEF
:101AA000F1F202FB1102002A17D13068002814D08D
:101AB0003068FA2811D0706800280ED0306871683C
:101AC00088420ADA1F983168884206DB70681F99DD
:101AD000884202DB1AF1010AFFE72298401C22909B
:101AE000361DD1E71A98401C1A90B2E705981A9053
:101AF0001A98002849D4DFF8B4041A99642202FB2A
:101B000001000600DFF8A4041A99642202FB010018
:101B1000603008903068FA2802D03068002800D180
:101B200033E000202290089886422AD230680028AC
:101B300002D17068002824D02298022190FBF1F293
:101B400002FB1102002A17D13068002814D0306837
:101B5000FA2811D0706800280ED030687168884269
:101B60000ADA1F983168884206DB70681F9988423C
:101B700002DB1AF1010AFFE72298401C2290361D71
:101B8000D1E71A98401E1A90B2E71E98002807D095
:101B90001E98504502DA1F98299005E0FA202990F6
:101BA0001F98401C1F904BE71298FA280CD12998D7
:101BB000FA3001F03BFD0022DFF8F43301F04EFD76
:101BC00001F01EFE159001E0159815901998DFF8A8
:101BD000041988601898DFF8FC18C8601698DFF8B8
:101BE000F41808611298DFF8EC18486132E019988F
:101BF00000280FD1189800280CD005981899884211
:101C000008DB0598DFF8CC1888601898DFF8C4184E
:101C1000C8601FE0189800280FD1199800280CD030
:101C200019980599884208DB1998DFF8A818886088
:101C30000598DFF8A018C8600CE0199818990843B7
:101C4000002807D10598DFF88C1888600598DFF820
:101C50008418C8600598002802D50020059004E08B
:101C60000598662801DB6520059005980128C0F2DB
:101C7000CD810598652880F2C98116980490129844
:101C80000390CA480599642202FB010064380600EB
:101C9000C6480599642202FB0100001F089000203D
:101CA0008146089886424CD23068002802D170687C
:101CB000002846D0022099FBF0F101FB1091002989
:101CC0003BD13068002838D03068FA2835D07068A9
:101CD000002832D03068716888422EDA3068049962
:101CE000884203DB0398716888421FDA30680499E0
:101CF000884207DB70680399884203DB03983168E8
:101D0000884213DA04983168884207DB03987168C7
:101D1000884203DB70680499884207DA04983168C6
:101D2000884207DB70680399884203DB01208DF845
:101D3000080006E000208DF8080019F10109361DA1
:101D4000AFE716980490129803909848059964227A
:101D500002FB01006430060094480599642202FBEE
:101D60000100C430089000208146089886424CD279
:101D70003068002802D17068002846D0022099FB04
:101D8000F0F101FB109100293BD13068002838D0D8
:101D90003068FA2835D07068002832D03068716811
:101DA00088422EDA30680499884203DB0398716810
:101DB00088421FDA30680499884207DB706803990B
:101DC000884203DB03983168884213DA049831684B
:101DD000884207DB03987168884203DB70680499C6
:101DE000884207DA04983168884207DB70680399F3
:101DF000884203DB01208DF8080006E000208DF802
:101E0000080019F10109361DAFE79DF80900002807
:101E100010D19DF8080001280CD105981899401A96
:101E2000022803DB01208DF8090017E000208DF85F
:101E3000090013E09DF8090001280FD19DF8080062
:101E400000280BD119980599401A022803DB0120BC
:101E50008DF8080002E000208DF808009DF80900C8
:101E6000002804D09DF80800002840F06E820598F4
:101E70000528C0F26A820598612880F266820020F7
:101E800024902498052880F2A38048480599249A34
:101E90005118642202FB0100643006004348059992
:101EA000249A5118642202FB0100C43008900020DB
:101EB00081460898864234D23068002802D1706882
:101EC00000282ED0022099FBF0F101FB109100298F
:101ED00023D13068002820D03068FA281DD07068DF
:101EE00000281AD030687168884216DA159831686F
:101EF00088420EDB7068159988420ADB7068316889
:101F0000401A022805DB9DF80B00401C8DF80B00E1
:101F100003E09DF80B008DF80B0019F10109361D47
:101F2000C7E722480599249A891A642202FB010016
:101F3000643806001D480599249A891A642202FB18
:101F40000100001F089000208146089886423BD27D
:101F50003068002802D17068002835D0022099FB33
:101F6000F0F101FB109100292AD13068002827D018
:101F70003068FA2824D07068002821D03068716851
:101F800088421DDA15983168884215DB706815990A
:101F9000884211DB70683168401A02280CDB9DF81A
:101FA0000A00401C8DF80A000AE000BF041BFF1F56
:101FB0000000E03FFC44FF1F9DF80A008DF80A0076
:101FC00019F10109361DC0E72498401C249058E7F8
:101FD0009DF80B00062802DB05208DF80B009DF80C
:101FE0000A00062802DB05208DF80A009DF80B0088
:101FF0009DF80A1051FA80F00528C0F2A681012050
:102000008DF8090001208DF808009EE10598002850
:1020100040F0CF801698049012980390DFF82C0AB5
:102020000599642202FB010064300600DFF81C0AF7
:102030000599642202FB0100C4300890002081460B
:10204000089886424CD23068002802D17068002877
:1020500046D0022099FBF0F101FB109100293BD101
:102060003068002838D03068FA2835D070680028E9
:1020700032D03068716888422EDA3068049988421C
:1020800003DB0398716888421FDA3068049988423C
:1020900007DB70680399884203DB03983168884244
:1020A00013DA04983168884207DB03987168884224
:1020B00003DB70680499884207DA04983168884223
:1020C00007DB70680399884203DB01208DF8090063
:1020D00006E000208DF8090019F10109361DAFE76F
:1020E0001698049012980390DFF86009059964220D
:1020F00002FB0100C8300600DFF850090599642290
:1021000002FB010010F594700890002081460898A9
:10211000864280F01A813068002803D17068002858
:1021200000F01381022099FBF0F101FB10910029CE
:102130003BD13068002838D03068FA2835D0706834
:10214000002832D03068716888422EDA30680499ED
:10215000884203DB0398716888421FDA306804996B
:10216000884207DB70680399884203DB0398316873
:10217000884213DA04983168884207DB0398716853
:10218000884203DB70680499884207DA0498316852
:10219000884207DB70680399884203DB01208DF8D1
:1021A0000800D2E000208DF8080019F10109361D61
:1021B000ADE71698049012980390DFF890080599FF
:1021C000642202FB010064380600DFF880080599EC
:1021D000642202FB0100001F08900020814608983D
:1021E00086424CD23068002802D17068002846D060
:1021F000022099FBF0F101FB109100293BD13068DE
:10220000002838D03068FA2835D07068002832D0DD
:102210003068716888422EDA30680499884203DB9E
:102220000398716888421FDA30680499884207DB96
:1022300070680399884203DB03983168884213DA97
:1022400004983168884207DB03987168884203DB91
:1022500070680499884207DA04983168884207DB7D
:1022600070680399884203DB01208DF8080006E0BE
:1022700000208DF8080019F10109361DAFE7169806
:10228000049012980390DFF8C4070599642202FBBA
:102290000100C8380600DFF8B4070599642202FB84
:1022A00001006838089000208146089886424CD288
:1022B0003068002802D17068002846D0022099FBBF
:1022C000F0F101FB109100293BD13068002838D093
:1022D0003068FA2835D07068002832D030687168CC
:1022E00088422EDA30680499884203DB03987168CB
:1022F00088421FDA30680499884207DB70680399C6
:10230000884203DB03983168884213DA0498316805
:10231000884207DB03987168884203DB7068049980
:10232000884207DA04983168884207DB70680399AD
:10233000884203DB01208DF8090006E000208DF8BB
:10234000090019F10109361DAFE72A9802281DDBA3
:102350009DF80800012819D19DF80900012815D120
:1023600005985C49086015985A4948600020594909
:1023700008770020DFF8D81608700020DFF8D416A0
:1023800008600020DFF8D016086069E05148006A54
:10239000504908604F48406A4E49486001204D4905
:1023A0000877DFF8B0060068401CDFF8A816086060
:1023B000DFF8A0060068022803DB0120DFF894168E
:1023C0000860444890F83C0000283DD1414890F80E
:1023D0005C00002838D13F48006A3E49096CD1EBC7
:1023E0004000DFF8781608603A48406A3949496C7D
:1023F000D1EB4000DFF868160860DFF8600600687F
:10240000002804D50020DFF85416086008E0DFF843
:102410004C060068672803DB6620DFF8401608607A
:10242000DFF83C060068002804D50020DFF83016ED
:10243000086015E0DFF828060068FB2810DBFA20AA
:10244000DFF81C1608600BE0DFF810064068DFF8C4
:102450000C160860DFF808064068DFF8041608600C
:102460001C48006801F0E2F802000B00100019009F
:1024700001F0F4F8DFF8EC25DFF8EC3501F0EEF8C8
:10248000CDE900011348006801F0D0F8DFF8DC2541
:10249000DFF8DC3501F0E2F802000B00DDE90001B5
:1024A00001F0DAF9DFF8CC25DFF8CC3501F094FA49
:1024B00001F006FBDFF8C4150860DFF8C00500680E
:1024C000002101F045FB07D20020DFF8B0150860BD
:1024D0000FE000BF1844FF1FDFF8A0050068DFF819
:1024E000A01501F047FB04D8DFF89805DFF88C153C
:1024F0000860DFF8940500684E2803DB0020DFF851
:102500007C150860DFF880054068DFF880150860FA
:10251000DFF87C0500780A2831DADFF87805DFF883
:1025200070150978085C002810D1DFF86005006894
:102530007D3801F031FBDFF84415096801F044FBF8
:1025400001F0B6FBDFF85015086028E0DFF844051D
:10255000DFF83C150978085C012820D1DFF82C054C
:1025600000687D3801F018FBDFF81015096801F0EC
:10257000C1FB01F09DFBDFF8201508600FE0DFF8DC
:102580000C0500687D3801F007FBDFF8F0140968DE
:1025900001F01AFB01F08CFBDFF8FC140860DFF897
:1025A000B4040068012821D10120DFF8AC140860D0
:1025B000DFF8E8040078012803D10120DFF8901447
:1025C00008700020DFF8D41408700020DFF8D01461
:1025D00008700020DFF8CC1408600020DFF89C149D
:1025E00008600020DFF8C01408701AE0DFF89804D3
:1025F0000068DFF89414096A401A0A2808DADFF83C
:1026000088040068DFF88014096C401A0A2808DB87
:10261000DFF888040078012803D10020DFF8841453
:102620000860DFF834040068DFF880140860DFF821
:10263000580400683D2817DADFF84C04C0683D28CC
:1026400012DADFF84404006800280DD0DFF83804FF
:10265000C068002808D0DFF800040068002803D113
:102660000120DFF838140870DFF830040078DFF854
:1026700040140870DFF824040078012826D1DFF820
:10268000080400680D280EDADFF8FC03C0680D2886
:1026900009DADFF8F4030068002804D0DFF8E80363
:1026A000C068002809D1DFF8AC03006802280DD10A
:1026B000DFF8D403006C1F2808DADFF8F80300689D
:1026C0001E2803DB0120DFF8DC130860DFF8B80305
:1026D0000068292818DADFF8B0030068002813D052
:1026E000DFF8A403006A29280EDADFF89C03006AE9
:1026F000002809D0DFF860030068002804D1012019
:10270000DFF89C13087003E00020DFF894130870D2
:10271000DFF88C030078DFF8A0130870DFF8780387
:10272000006800F083FF5FF06632DFF8903300F05E
:1027300095FFCDE90001DFF86003406800F076FF07
:10274000DFF87C23DFF87C3300F088FFDDE900232D
:1027500001F042F9CDE90001DFF83C03806800F0A8
:1027600065FFDFF85C23DFF8603300F077FFDDE919
:10277000002301F031F901F043F8DFF81C13086081
:10278000DFF814030068C4498968401ADFF83C1375
:102790000860BD480068DFF838130860BA48406830
:1027A000DFF830130860B8488068DFF82C13086041
:1027B000B548C068DFF824130860B3480069C84909
:1027C0000860B1484069C7490860AF488069C64998
:1027D0000860AD48007FC5490870AB480068002814
:1027E00014D0A9484068002810D0A748007F0028CE
:1027F0000CD1BF480078002808D1BE480068C0F35B
:102800008010002802D00120B9490870AA48007839
:10281000012806D1A8484078002802D10120B649F5
:102820000870A3480078012806D1A1484078002804
:1028300002D10120B149087093480068002835D0C2
:1028400091484068002831D08F48006A00282DD078
:102850008D48406A002829D08B48007F002825D168
:102860008948006A1F2821DA874800688649096A72
:10287000401A0F281ADB86480078401C84490870EB
:1028800083480078652803DB6420814908700DE0E7
:102890009B4800687E490978884207DA98480068B2
:1028A000002803D096480068794908707F4800687E
:1028B000002809D17D484068012805D100208F49B2
:1028C000087000208C4908706448006863494860BB
:1028D00063480068624948608A4806007348089067
:1028E0000898B04204D256F8040C3060361FF7E75F
:1028F000854817906E48289028981799884208D2E2
:10290000179810F8010C179908701798401E179027
:10291000F2E77E48179068482890289817998842CF
:1029200008D2179810F8010C179908701798401ED4
:102930001790F2E776480600544808900898B0428D
:1029400004D256F8040C3060361FF7E771480600D1
:10295000514808900898B04204D256F8040C3060F0
:10296000361FF7E76C480600584808900898B042B0
:1029700004D256F8040C3060361FF7E70220804678
:10298000B8F1010F28DB6548602101FB08006349AD
:10299000602202FB08116039202201F0EDF95F4846
:1029A000602101FB080020305C49602202FB081115
:1029B0004039202201F0E0F95848602101FB08006D
:1029C00040305649602202FB08112039202201F0D4
:1029D000D3F9B8F10108D3E751480E902A482E9058
:1029E0002E980E9988422BD20E9850F8200C0E99F2
:1029F00008600E9850F81C0C0E9948600E9850F81C
:102A0000140C0E99C8600E9850F8180C0E99886036
:102A10000E9850F8100C0E9908610E9850F80C0C96
:102A20000E9948610E9850F8080C0E9988610E981E
:102A300010F8040C0E9908770E9820380E90CFE706
:102A400073B00DF5205DBDE8F08F0000041BFF1F83
:102A5000DA48FF1FE444FF1FE844FF1FD044FF1F74
:102A6000D844FF1FC078060DFD138C3FE17A14AEE9
:102A700047E1004014AE47E17A9456403848FF1FC2
:102A800001008C4200008C421844FF1F3019FF1FC8
:102A9000E148FF1FE442FF1F4419FF1FDD48FF1FED
:102AA000DE48FF1FEC44FF1FE848FF1FF044FF1FF4
:102AB0003C48FF1F9807FF1F4048FF1F6666E63F20
:102AC0009A9999999999C93F9999B93F5819FF1FAE
:102AD000B844FF1FBC44FF1FC044FF1FC444FF1F76
:102AE000C844FF1FCC44FF1FE044FF1FDC48FF1F0A
:102AF000F148FF1F10F10F40DF48FF1FDB48FF1FA9
:102B00008407FF1FF844FF1F3E48FF1F4248FF1F76
:102B10004019FF1F5419FF1F6819FF1FF842FF1FBC
:102B20009844FF1FDFF800F03904FF1FDFF800F0C2
:102B3000B504FF1F4FF47A7190FBF1F1DFF8A8287C
:102B400011604FF47A7190FBF1F201FB12016422E3
:102B500091FBF2F1DFF894281160642190FBF1F20F
:102B600001FB12010A2291FBF2F1DFF884281160C7
:102B7000642190FBF1F201FB12010A2291FBF2F3B6
:102B800002FB1311DFF8B029116070474FF47A711E
:102B900090FBF1F1DFF85C2811604FF47A7190FB43
:102BA000F1F201FB1201642291FBF2F1DFF84828F7
:102BB0001160642190FBF1F201FB12010A2291FBEA
:102BC000F2F1DFF838281160642190FBF1F201FB8B
:102BD00012010A2291FBF2F302FB1311DFF85C29C8
:102BE00011607047814203D300220270401CF9E754
:102BF0007047814203D300220260001DF9E770474D
:102C000070B51A240025192000FB04F0A0F24B2017
:102C10000500DFF82C09192101FB0400401BDFF837
:102C200024190968091280F80F1ADFF8140919210C
:102C300001FB0400401BDFF810190968091280F835
:102C4000101ADFF8FC08192101FB0400401BDFF813
:102C5000FC180968091280F8111ADFF8E408192134
:102C600001FB0400401BDFF8E8180968091280F82E
:102C7000121ADFF8CC08192101FB0400401BDFF811
:102C8000D4180968091280F8131ADFF8B40819215A
:102C900001FB0400401BDFF8C0180968091280F826
:102CA000141ADFF89C08192101FB0400401BDFF80F
:102CB000AC180968091280F8151ADFF88408192180
:102CC00001FB0400401BDFF898180968C83109129D
:102CD00080F8161ADFF86808192101FB0400401B70
:102CE000DFF880180968C831091280F8171ADFF870
:102CF0005008192101FB0400461BDFF86C088068AE
:102D000000F0D6FF001286F8180ADFF834081921FF
:102D100001FB0400461BDFF85008006800F0C8FF04
:102D2000001286F8190ADFF81808192101FB0400BF
:102D3000401BDFF838180968091280F81A1ADFF802
:102D40000008192101FB0400461BDFF82408016874
:102D5000DFF8200800F0CEFF00F0AAFF001286F88E
:102D60001B0ADFF8DC07192101FB0400461BDFF812
:102D70000408DFF8FC17096800F026FF00F098FF50
:102D8000001286F81C0ADFF8B807192101FB0400BD
:102D9000401B002180F81D1ADFF8A407192101FB50
:102DA0000400461BDFF8D0070168DFF8D00700F009
:102DB000A1FF00F07DFF001286F81E0ADFF88007F1
:102DC000192101FB0400461BDFF8B407006800F07E
:102DD0006FFF001286F81F0ADFF86407192101FB54
:102DE0000400461BDFF89C07006800F061FF00123A
:102DF00086F8200ADFF84807192101FB0400401B70
:102E0000DFF884170968091280F8211ADFF8300703
:102E1000192101FB0400401BDFF86C170968091237
:102E200080F8221ADFF81807192101FB0400401B63
:102E3000DFF81017096880F8231ADFF80407192152
:102E400001FB0400401BDFF80017096880F8241A12
:102E5000DFF8EC06192101FB0400401BDFF8EC163B
:102E6000096880F8251ADFF8D806192101FB04004B
:102E7000401BDFF8DC16096880F8261ADFF8C00668
:102E8000192101FB0400401BDFF8C816096880F80F
:102E9000271ADFF8AC06192101FB0400401BDFF8FC
:102EA000B816096880F8281ADFF89406192101FB82
:102EB0000400401BDFF8A416096880F8291ADFF81F
:102EC0008006192101FB0400401BDFF894160968F5
:102ED000383980F82A1ADFF86806192101FB040046
:102EE000401BDFF880160968383980F82B1ADFF8A4
:102EF0005006192101FB0400461BDFF86C068068B0
:102F000000F0D6FE86F82C0ADFF83406192101FB02
:102F10000400461BDFF85006006800F0C9FE86F882
:102F20002D0ADFF81C06192101FB0400401BDFF805
:102F30003C16096880F82E1ADFF80406192101FBF7
:102F40000400461BDFF828060168DFF8280600F0B9
:102F5000D1FE00F0ADFE86F82F0ADFF8E405192156
:102F600001FB0400461BDFF80C06DFF804160968B5
:102F700000F02AFE00F09CFE86F8300ADFF8C0055B
:102F8000192101FB0400401BDFF80016097880F8C6
:102F9000311ADFF8AC05192101FB0400461BDFF8EC
:102FA000D8050168DFF8D40500F0A4FE00F080FE2B
:102FB00086F8320ADFF88805192101FB0400461B58
:102FC000DFF8BC05006800F073FE86F8330ADFF80E
:102FD0007005192101FB0400461BDFF8A8050068F5
:102FE00000F066FE86F8340ADFF85405192101FB6B
:102FF0000400401BDFF89015096880F8351ADFF8E7
:103000004005192101FB0400401BDFF87C1509680D
:1030100080F8361A70BDF8B50026DFF87475012007
:1030200000F0DFFFDFF868150860012000F0E7FF1F
:10303000012000F0E4FFDFF85805006800F0F6FA20
:103040005FF06632DFF84C3500F008FB04000D003D
:10305000DFF83C05406800F0E9FADFF83C25DFF8CE
:103060003C3500F0FBFA22002B0000F0B5FC040018
:103070000D00DFF81C05806800F0D8FADFF818258D
:10308000DFF81C3500F0EAFA22002B0000F0A4FC67
:1030900000F0B6FBDFF8F8140860DFF8F40400680D
:1030A000DFF8E414086002200600DFF8E4040700FB
:1030B000012E07DB17EB860050F8040C47F82600BA
:1030C000761EF5E7F1BD0020DFF8D814096851F449
:1030D0008061DFF8D024116000210800B0F5C87FBE
:1030E00001DA401CFAE7DFF8BC14096831F48061AA
:1030F000DFF8B0241160DFF8B0140968490849000E
:10310000DFF8A42411605FF0FF31DFF8A024116024
:1031100070470020DFF8981405221000DFF8902493
:103120001100012807DB11EB800252F8042C41F852
:103130002020401EF5E77047F8B504000025002662
:103140000027DFF870040068D0F1FF000500DFF809
:1031500068040078002816D114F1020F0CD0ADB22B
:103160002800FFF7DFFC2200B6B23100ADB2280024
:10317000FFF7DCFC27000CE0ADB2E80210FA86F0A5
:103180000068070005E0ADB2E80210FA86F00068BA
:103190000700DFF820040068401CDFF818140860FE
:1031A0003800F2BD80B5DFF81004007800286CD13B
:1031B000DFF80804006800F07BFDFFF7BDFF00F0BA
:1031C000EBFCDFF8F8130860DFF8F403006800F0A8
:1031D0006FFDFFF7B1FF00F0DFFCDFF8E4130860DC
:1031E000DFF8E003006800F063FDFFF7A5FF00F0E3
:1031F000D3FCDFF8D0130860DFF8CC030068FFF7DA
:103200009BFFDFF8C4130860DFF8C0030068FFF716
:1032100093FFDFF8B8130860DFF8B4030068FFF726
:103220008BFFDFF8AC130860DFF8A8030068FFF736
:1032300083FFDFF8A0130860DFF89C030068FFF746
:103240007BFFDFF894130860DFF890030068FFF756
:1032500073FFDFF888130860DFF884030068FFF766
:103260006BFFDFF87C130860DFF878030068FFF776
:1032700063FFDFF870130860DFF86C030068FFF786
:103280005BFFDFF864130860A7E0DFF8280300683D
:10329000D0F1FF00C002006800F07EFCDFF81C13D4
:1032A0000860DFF810030068401CDFF808130860AE
:1032B000DFF800030068D0F1FF00C002006800F0F2
:1032C0006BFCDFF8FC120860BA480068401CB94982
:1032D0000860B8480068D0F1FF00C002006800F044
:1032E0005BFCB8490860B3480068401CB1490860FD
:1032F000B0480068D0F1FF00C0020068B249086021
:10330000AC480068401CAB490860AA480068D0F18E
:10331000FF00C0020068AD490860A6480068401C74
:10332000A4490860A3480068D0F1FF00C00200680B
:10333000A74908609F480068401C9E4908609D4856
:103340000068D0F1FF00C0020068A24908609948F7
:103350000068401C9749086096480068D0F1FF005B
:10336000C00200689C49086092480068401C91496E
:10337000086090480068D0F1FF00C00200689749DB
:1033800008608C480068401C8A49086089480068C9
:10339000D0F1FF00C00200689149086085480068CC
:1033A000401C8449086083480068D0F1FF00C002D7
:1033B00000688C4908607F480068401C7D490860AF
:1033C0007C480068D0F1FF00C002006886490860B0
:1033D00078480068401C77490860002075490860FB
:1033E0007F208249087001BD5807FF1F5C07FF1F3F
:1033F0006007FF1F6807FF1F6C07FF1F7007FF1F95
:1034000038B57B480068C0F38010002821D0794887
:103410000068C82803DB78480078002819D16F4875
:103420000068002805D0754800786C490968884212
:103430000FDA0020724908700020724908600020ED
:1034400071490860002071490860002070490860D7
:1034500041E067480068C0F3801000281FD065482D
:103460000068C8281BDB64480078012817D15B4836
:103470000068002805D061480078584909688842EA
:103480000DDA5F480078401C5D4908705D480068AF
:103490005D49096800F0D6FD5C4908601BE05448AE
:1034A0000068C0F38010002809D04C48006800284C
:1034B00011D0524800784949096888420BD15048D8
:1034C00000784F4908704F4800684E4908604F48DF
:1034D00000684E4908604A4800781F280ADB00202F
:1034E00047490870484801685FF07E5000F002FCD0
:1034F0004549086044480068464900F03BFB02D853
:103500004548414908604048006800F0D1FB00F0A0
:103510008DF804000D003A48007800F091F83F4A19
:103520003F4B00F09BF822002B0000F055FA00F012
:10353000C7FA3549086031BD6407FF1F7407FF1FD4
:10354000C407FF1FB844FF1FBC44FF1FC044FF1F38
:10355000C444FF1FC844FF1FCC44FF1FE044FF1FAB
:103560004419FF1F5819FF1FAC07FF1FE844FF1F36
:103570003848FF1F0000FA421007FF1F00007A447E
:10358000CC06FF1FD006FF1F9407FF1FE048FF1F58
:103590009C07FF1F6666E63F9A9999999999C93FDA
:1035A0009999B93F80F00F4018710340147103409E
:1035B0005C48FF1FA807FF1FF048FF1FC006FF1F42
:1035C000C806FF1FC406FF1FA006FF1FA406FF1F9B
:1035D0000007FF1F0407FF1F7807FF1F8407FF1F57
:1035E000B805FF1FF042FF1FF442FF1F1300024007
:1035F00010F10F408007FF1FF148FF1FE148FF1F38
:10360000D948FF1F8807FF1F8C07FF1F9007FF1F68
:10361000F806FF1F0100F0420000F0424C378941DC
:1036200060E5A03F002200F08BBD7047010040F133
:103630000980F446404200F005F851F0004160472F
:10364000010000BF09D0B0FA80F18840C91CC1F563
:103650008461090501EBD02140057047B0B581EACE
:10366000030C0CF0004C40F2FF7515EA11541DBF1D
:1036700015EA1357AC42AF4239E0E41923EA455347
:1036800043F48013C90241F0004141EA505EC70291
:103690001100A7FB020200284FF00000EEFB012002
:1036A0004FF00001E3FB072118BF42F00102401870
:1036B00000214941E3FB0E01A4F580640F0302D20F
:1036C00052004041494154F101046CDD470872F158
:1036D000004250F1000051EB0451A1F580115CBF94
:1036E00041EA0C01B0BD4CEA05510020B0BD05EA2D
:1036F0001357AC4214BFAF4241E050EA410E1CBF29
:1037000052EA430E02E061460020B0BD24423C4430
:103710001BD15FEA070EF6D0090302BF0146002065
:10372000AEF1140EB1FA81F7AEEB070401FA07FE11
:103730000C37C7F1200100FA07F7C8404EEA000E27
:1037400023EA455343F48013A2E733F00043B3FA6E
:1037500083F704BFB2FA82FE77440B3FE41BB7F154
:10376000200E2FBF02FA0EF3BB40C7F1200E22FA43
:103770000EFE38BF43EA0E03BA40641C82E750EAEB
:10378000410E14BF52EA430E6FF000014FF40017D0
:1037900017EB430F8ABF194617EB410FB5E74CEA09
:1037A00005510020B0BDD4F10104B4F120070FDAB7
:1037B000C4F12007520828BF42F0010210FA07F5B1
:1037C00001FA07F7E1BF2A43E0403843E1400FE048
:1037D000352C98DCC7F1200452EA400220FA07F2A7
:1037E00018BF42F0010231FA07F0A1400A4300215C
:1037F00072F1004250F1000051EB0C01B0BD00002D
:10380000F446400D40EAC120490006D200F014F809
:10381000004248BF6FF00040604700F00DF84FF0E5
:10382000004188428CBF084640426047400D40EA54
:10383000C120490080F00D8040F00040490DA1F505
:103840008061491C05D4D1F11F0154BFC840C01785
:1038500070474FF000007047F0B44FF0004591EA18
:10386000030F44BF6B4000F0C1B800BF841A71EB76
:10387000030604D26E40001BB141121973414FF48C
:10388000001C1CEB410F34BF7CEB430684E00C0DA5
:10389000A4EB1356362E7DDC012E43DC45EAC32310
:1038A00043EA525312BFD20292025B08240545EA52
:1038B000C12141EA5051D2EBC020994125D407D112
:1038C000B0FA80F610FA06F164D00020203608E045
:1038D000B1FA81F6B140C6F1200220FA02F211439A
:1038E000B0404FEAF474B4EB465434F001064FEAAA
:1038F00074040AD8D6F50016760D04F00044F040A2
:1039000061FA06F25040F1404840C00A40EA415096
:1039100021F0004128BF5FEA500550F1000044EB60
:10392000D12137E045EAC323DB0A45EAC121C90AB0
:10393000B6F120050EDD42EA0242120CC5F1200666
:1039400003FA06F6EB4042EA06056D42984161F142
:1039500000010DE062FA06F5F240554063FA06FCFC
:1039600082EA0C02F3405A406D42904161EB030140
:1039700011F4801F05D1641E620502D06D00404124
:10398000494121F48011430875F1004350F10000D2
:1039900041EB0451F0BC70471CEB410F15D223F0F2
:1039A000004352EA43060BD04FEA4C0CBCEB410FEC
:1039B00004D80C0D661E342EB7DDEBE7801A994152
:1039C00050EA410608BF0021E4E708BF1CEB430FA3
:1039D00028BF6FF00001DDE7F0B44FF0004591EA39
:1039E000030C44BF6B40FFF741BF00BF841A71EB6B
:1039F000030603D2001BB141121973414FF4001C9E
:103A00001CEB410F34BF7CEB430443E00C0DA4EBF3
:103A10001356352E50DC45EAC323DB0A45EAC121A3
:103A2000C912B6F120050DDD63FA05F6EB4086EA12
:103A30000305124218BF45F00105C01851F10001FD
:103A40000CD213E062FA06F5F2405540F3415A40B9
:103A5000B340F3405A408018594107D349085FEA00
:103A600030005FEA350528BF45F0010501F58011FA
:103A7000420875F1004250F1000041EB0451F0BCE6
:103A80004FF4001C1CEB410F38BF70470020090D9C
:103A9000090570471CEB410F10D252EA43060BD0C8
:103AA000BCEB410F05D80C0DAB43661E342EB5DDC3
:103AB00002E0AB4380185941F0BC7047F0BC70473E
:103AC0004FEAF17CBCF1E04C2CBFBCF5001F11E0CB
:103AD0005FEA4C0C34BFBCF17F5F2EE05FEA9C0CC8
:103AE0004FEA0C1C4FEA3C0CC10071F100414CEB59
:103AF00050707047C90241EA5051C00218BF41F0EE
:103B0000010141F000414FEA6C50C0F10900212849
:103B100010D240EACC7CCCF1200C11FA0CF070F100
:103B20000040CCF1200C21FA0CF00CF0004C40EBE2
:103B30000C0070474FEACC707047490011F5001F28
:103B400004D84FEACC10FF30C0057047C817704743
:103B50004FF0807C1CEB400F94BF1CEB410F05E045
:103B600040EA010C5FEA4C0C01D28842704718BF52
:103B7000814270474FF0807C1CEB400F94BF1CEBE0
:103B8000410F05E040EA010C5FEA4C0C01D2814292
:103B9000704718BF88427047002840F10780F446FC
:103BA000404200F003F850F0004060470AD0B0FAFD
:103BB00080F18840D1F19D01C905020672F10042F1
:103BC00041EB10207047000090EA010F44BF81F0E4
:103BD000004100F097B800BF431A4FF000423EBFCB
:103BE0005340C01AC91800BFD3095FEAD05C13EB79
:103BF000400F34BFB3EB410F40E07CEBD1530CD30B
:103C000042EA012122D8D1EB402009D3400A28BF43
:103C10005FEA500140EBCC507047401A15D040028B
:103C2000B0FA80F2521C9040400A4FEA3C23B3EBBA
:103C3000026384BF00EB730007E040F400001A1633
:103C4000DB07C2F10102D04018437047182BFCDC9F
:103C500031FA03F202FA03F3591A38BF42F00102B3
:103C6000D2EB40203CBF4000ACF1010C5FEACC5CE1
:103C7000C20572F100414CEB5020704713EB400F2E
:103C80000FD24B0009D0ACEBD153022B03DB49021E
:103C9000172BDDDD70479143401A4300D5D100203A
:103CA000704713EB410FD0D36FF000007047000056
:103CB0004100090E7F3915D4D1F11F0114D4400001
:103CC00007D2C00140F00040C84048BF6FF000403C
:103CD0007047C00140F00040C8404CBF4FF000406A
:103CE000404270470020704700424FF0004058BFEC
:103CF000C043704790EA010F44BF81F00041FFF7D5
:103D00006BBF00BF421A3CBF801A89184FF0004CAD
:103D1000C0F3C752FF2A24D0C1F3C75313B3D21A3A
:103D2000D2F1190327DD4CEA01214CFA03F321EA11
:103D30000303D140C20D4CEA0020401834BF20EAF2
:103D40000C004CEA5000D20553EA006373EB0C0CF4
:103D500052EB1020420012F1807F38BF7047C00D37
:103D6000C0057047490212BF9A4200EB5120F8E7A4
:103D7000D2F11703D9D57047103A07D330B4B1E860
:103D80003810103AA0E83810F9D230BC530724BFDD
:103D9000B1E80810A0E8081044BF51F8043B40F80F
:103DA000043BD20724BF31F8022B20F8022B44BF7A
:103DB0000B7803707047083A07D3B1E80810083A47
:103DC00040F8043B40F804CBF7D25307E4E7000087
:103DD0002DE9F8430500894616001F005FF0000832
:103DE0005FFA88F8B8F1000F01D101240EE05FFA04
:103DF00088F8B8F1010F01D1022407E05FFA88F8D2
:103E0000B8F1020F01D1042400E01024B6F5004FF0
:103E100002D347F6FF7006008748EDB240F82560F0
:103E20007D48006850F002007B4908607B480068CC
:103E300050F002007949086080487949EDB26A0182
:103E400050507E48EDB2690101F1804111F51041F9
:103E500008610020EDB2690101F1804111F51041C6
:103E600088800020EDB2690101F1804111F5104117
:103E700088825FFA88F85FEA082010F4E0605FFA51
:103E800088F818F007010843EDB2690101F180419B
:103E900011F51041C88030004004400CEDB26901BA
:103EA00001F1804111F51041C8823000C005C00DFC
:103EB000EDB2690101F1804111F51041C883594803
:103EC000006830F0800057490860E4B2EDB2680144
:103ED00000F1804010F5104084607042EDB269013D
:103EE00001F1804111F51041C8600020EDB2690177
:103EF00001F1804111F5104188610A20EDB269019C
:103F000001F1804111F5104188834846C0B2400953
:103F1000313050F080004449EDB2685443480168A4
:103F20004FF400724846C0B2400912FA00F008434C
:103F30003E4908603E485FFA89F95FEA691150F826
:103F400021003B495FFA89F95FEA691251F82210B2
:103F50004969012219F01F039A4091434161354894
:103F60005FFA89F95FEA691150F821105FFA89F95F
:103F700019F01F02FFB217F003033800C0B2800926
:103F8000C0B250EA034050F4807041F822005FFA5A
:103F900089F9B9F1000F01D0012000E00020244987
:103FA0005FFA89F95FEA691251F82210204A5FFA34
:103FB00089F95FEA691352F823205269012313FA41
:103FC00000F032EA000048611D4800680121A94064
:103FD00008431B490860EDB2280000F0CEF8BDE8A8
:103FE000F18301001448C9B250F82100C9B24A0156
:103FF00002F1804212F51042D28A801A70470E49AF
:10400000C0B251F82010C0B2420102F1804212F554
:104010001042D18270470000408004403C80044040
:1040200000900040008000400010024038800440B2
:10403000D005FF1FE405FF1F1807FF1F0C000440F9
:104040000C80004010B5FF2313EAD0541DBF13EAC3
:10405000D1529C429A4239E0A41ADA0780EA01035D
:10406000134042EA012142EA0020421A3CBF641E8A
:1040700001EB4202090AB2FBF1FE01FB1E22120211
:10408000B2FBF1F001FB10226EF30F201202B2FB23
:10409000F1FE4EEA00207F3406DDFE2C24DA53EADE
:1040A000500050EBC45010BDD4F1020401FB1E229D
:1040B00040F08071192C1DDC21FA04F0C4F12004B9
:1040C000A140114371F10042584110BD9C421ABFFA
:1040D00003EAD1529A420FE080EA010E0EF000434B
:1040E000400004D0490016D143F0FF4010BD490004
:1040F00008BFD343180010BD9C4205D1D21AF7D097
:1041000001F00041484010BD4A0212BF0846484035
:1041100000F0004010BD4AB90902B1FA81F29140A5
:1041200044B1A418C00140F000409EE7C90141F02D
:10413000004152420002B0FA80F4A040141B94E700
:1041400000B500BF130096469446103928BFA0E87A
:104150000C50FAD85FEA417C28BF0CC048BF40F839
:10416000042BC90728BF20F8022B48BF00F8012BF9
:1041700000BD000048490860704738B504005C2C59
:1041800002DB464800F041FB202094FBF0F00500E4
:10419000002D03D0022D27D013D337E0012020219A
:1041A00094FBF1F202FB114290403D49086001206E
:1041B000202194FBF1F202FB114290403949086042
:1041C00024E00120202194FBF1F202FB11429040F7
:1041D000354908600120202194FBF1F202FB1142D5
:1041E00090403249086011E00120202194FBF1F257
:1041F00002FB114290402E4908600120202194FBCF
:10420000F1F202FB114290402A49086031BD38B5F5
:1042100004005C2C02DB284800F0F7FA202094FB15
:10422000F0F00500002D03D0022D15D00AD31CE0BC
:104230000120202194FBF1F202FB114290401F4922
:10424000086012E00120202194FBF1F202FB1142F0
:1042500090401B49086008E00120202194FBF1F206
:1042600002FB114290401749086031BD70B504004F
:104270000D005C2C02DB144800F0C7FA102D02DBA5
:10428000124800F0C2FA04F1604010F564400600E4
:104290002801307070BD000008ED00E0FCC5000092
:1042A00080E200E000E100E084E200E004E100E000
:1042B00088E200E008E100E048C5000080E100E09D
:1042C00084E100E088E100E084C5000088C40000CB
:1042D00070B504000D0016003068012802D00228D5
:1042E00005D00AE02000C0B27168884705E0B068D8
:1042F0000470B068401CB060FFE72868401C28606C
:1043000070BD2DE9F04704005FF0000A5046A14659
:104310005FF0000A89F800A019F10109002A1FD0F6
:10432000D1F800A05546002D05D15FF0300A89F87C
:1043300000A0401C38E0002D36D095FBF3FA56461D
:1043400003FB165A5746002F02D5FF43313700E0D2
:104350003037350089F8007019F10109401CEAE78F
:10436000D1F800A0D446BCF1000F05D15FF0300AAF
:1043700089F800A0401C17E0BCF1000F14D0BCFB72
:10438000F3FAD64603FB1ECAD046B8F10A0F02D292
:1043900018F1300801E018F13708F44689F8008078
:1043A00019F10109401CE7E7BDE8F0872DE9F0416C
:1043B00004000D0016001F00A046A84507DA3A00C9
:1043C00031003020FFF784FF18F10108F5E7BDE860
:1043D000F0812DE9F04104000D0016001F00A046F9
:1043E000A84507DA3A0031002020FFF771FF18F1E5
:1043F0000108F5E7BDE8F0812DE9F24F92B0040025
:10440000150000200090129883469BF80000019050
:104410000198002800F0F5810198252813D0019813
:104420000A2805D0220069460198FFF751FF09E0EC
:10443000220069460D20FFF74BFF220069460A2043
:10444000FFF746FFDAE1002081460020049004983F
:10445000002822D11BF1010B9BF8000020280ED070
:10446000232812D02B2807D02D2802D0302809D09D
:104470000EE059F00109EAE759F00209E7E759F0BF
:104480000409E4E759F00809E1E759F01009DEE70B
:10449000BBF1010B01200490D9E7002082460020E7
:1044A00004900498002814D11BF1010B9BF8000024
:1044B000019001983038092806D80A20019900FB9C
:1044C0000A10B0F1300AECE7BBF1010B01200490B7
:1044D000E7E71BF1010B9BF800002E2811D100200B
:1044E0000490049800280ED11BF1010B9BF80000EA
:1044F0003038092800D8F4E7BBF1010B0120049003
:10450000EFE7BBF1010B1BF1010B9BF800004C28FE
:1045100006D0682802D06C2801D002E003E002E057
:1045200001E0BBF1010B1BF1010B9BF800000190B6
:104530000198582875D0622800F0D580632800F0D3
:104540001D81642813D0692811D06E2800F04A819B
:104550006F2800F0BD80702800F0D080732800F034
:104560001781752800F0D58078285AD041E1286855
:104570002D1D06900A23012206A909A8FFF7C1FEF6
:10458000070009A8381806000698002803D52D2032
:1045900003907F1C0FE05FEA897003D52B20039006
:1045A0007F1C08E05FEA497003D5202003907F1C40
:1045B00001E000200390002005905FEA097011D50A
:1045C0000398002804D0220069460398FFF780FE74
:1045D0000120059023006A4651463800FFF7E6FEA9
:1045E000574612E05FEAC9700FD423006A4651466D
:1045F0003800FFF7EEFE0398002804D02200694639
:104600000398FFF765FE012005900598002807D163
:104610000398002804D0220069460398FFF758FE4B
:1046200098E028682D1D02901023002202A909A8F5
:10463000FFF767FE070009A838180600002005905C
:104640005FEA097016D55FEAC9600BD5220069469A
:104650003020FFF73DFE220069467820FFF738FE44
:104660000120059023006A4651463800FFF79EFE60
:1046700057461BE05FEAC97018D45FEAC96000D5ED
:10468000BF1C23006A4651463800FFF7A2FE5FEACE
:10469000C9600BD5220069463020FFF719FE2200C1
:1046A00069467820FFF714FE012005905FEAC96093
:1046B0000DD5059800280AD1220069463020FFF761
:1046C00007FE220069467820FFF702FEBF1C41E08A
:1046D00028682D1D02900823002202A909A8FFF7CF
:1046E00010FE07001FE028682D1D02900223002203
:1046F00002A909A8FFF705FE070014E028682D1D90
:1047000002901023002202A909A8FFF7FAFD070072
:1047100009E028682D1D02900A23002202A909A899
:10472000FFF7EFFD070009A8381806005FEA0970D7
:1047300007D523006A4651463800FFF737FE574633
:1047400008E05FEAC97005D423006A465146380084
:10475000FFF73FFE3078002806D022006946307807
:10476000FFF7B6FD761EF5E75FEAC97005D52300B1
:104770006A4651463800FFF72CFE3FE028682D1DA1
:10478000C0B20790220069460798FFF7A1FD35E007
:1047900028682D1D8046B8F1000F22D0404600F059
:1047A00049F807005FEAC97005D423006A465146FC
:1047B0003800FFF70EFE98F80000002808D022000D
:1047C000694698F80000FFF783FD18F10108F2E749
:1047D0005FEAC97005D523006A4651463800FFF7E5
:1047E000F8FD0BE028682D1D0890009808990860D6
:1047F00004E0220069460198FFF76AFD1BF1010BF6
:1048000003E6009813B0BDE8F08F0EB47EB5040047
:10481000012000900648019007A805002A00210009
:104820006846FFF7E9FD060030007EBC5DF810FB2E
:10483000C1CB000001000A000023002A01D10020A2
:1048400007E01000421C0078002801D05B1CF8E74C
:10485000180070470021DFF8302B9268126852F47C
:104860008072DFF8243B9B681A6000221100C9B2F5
:1048700008292DDADFF8102BD2681268520852008E
:10488000DFF8043BDB681A6002060AD5DFF8F82A75
:104890009268126852F48022DFF8EC3A9B681A6042
:1048A00009E0DFF8E42A9268126832F48022DFF827
:1048B000D83A9B681A60DFF8D02AD268126852F0A2
:1048C0000102DFF8C43ADB681A604000491CCEE7F9
:1048D00070470021DFF8B02A9268126832F48072C3
:1048E000DFF8A43A9B681A6000221100C9B20829B7
:1048F0002DDADFF8942AD268126852085200DFF8E5
:10490000883ADB681A6002060AD5DFF87C2A9268CA
:10491000126852F48022DFF8703A9B681A6009E04E
:10492000DFF8642A9268126832F48022DFF8583A7D
:104930009B681A60DFF8502AD268126852F00102B0
:10494000DFF8443ADB681A604000491CCEE7704744
:1049500038B504000D00B5F15000C0B2FFF7B9FF43
:104960002000C0B2000950F01000C0B2FFF7B1FF44
:1049700014F00F0050F00100C0B2FFF7AAFF31BDE4
:1049800070B504000025002600200500EDB2082DBA
:1049900017DAB5F15000C0B2FFF79BFF0120FFF717
:1049A00098FF1020FFF795FF00200600F6B2802E3A
:1049B00005DA2000C0B2FFF74DFF761CF6E76D1C4C
:1049C000E4E770BD38B50024002500200400E4B2FF
:1049D000082C16DAB4F15000C0B2FFF77AFF0120BC
:1049E000FFF777FF1020FFF774FF00200500EDB2FE
:1049F000802D04DA0020FFF72DFF6D1CF7E7641C03
:104A0000E5E731BD010089B2002901D0491EFAE76E
:104A1000704780B5002301220621022001F032F800
:104A2000002301220021032001F02CF800230122A1
:104A30001221022001F026F8002301220121032087
:104A400001F020F8002301220821022001F01AF8C9
:104A5000DFF83409C068006850F00100DFF8281959
:104A6000C9680860DFF82009C068006830F00200FB
:104A7000DFF81419C96808603220FFF7C3FFDFF8B8
:104A80000809C068006850F00200DFF8FC18C96827
:104A90000860AE20FFF71DFF0020FFF71AFF10206F
:104AA000FFF717FF4020FFF714FF8120FFF711FFEA
:104AB000CF20FFF70EFFA120FFF70BFFC820FFF765
:104AC00008FFA620FFF705FFA820FFF702FF3F2001
:104AD000FFF7FFFED320FFF7FCFE0020FFF7F9FEF3
:104AE000D520FFF7F6FE8020FFF7F3FED920FFF771
:104AF000F0FEF120FFF7EDFEDA20FFF7EAFE1220CC
:104B0000FFF7E7FEDB20FFF7E4FE4020FFF7E1FEC2
:104B10002020FFF7DEFE0220FFF7DBFE8D20FFF7EF
:104B2000D8FE1420FFF7D5FEA420FFF7D2FEA62062
:104B3000FFF7CFFEAF20FFF7CCFE0020FFF720FFEE
:104B400000210020FFF704FF01BD2DE9F843040018
:104B50000D00160000275FF000085FF0000900203C
:104B6000070000208046002081465FFA89F919F885
:104B7000060000282BD05FFA89F919F806002038C2
:104B80000700E4B27F2C02DB002004006D1C29002A
:104B9000C9B22000C0B2FFF7DBFE002080465FFAFA
:104BA00088F8B8F1060F0EDADFF83C0CFFB20621E8
:104BB00001FB07005FFA88F818F80000FFF74AFECB
:104BC00018F10108EBE7A41D19F10109CDE7BDE8D3
:104BD000F1832DE9F04786B004000D0092461E00D7
:104BE00000275FF000085FF0000968461421FEF717
:104BF00019FD002E00F1A0804FF47A7096FBF0F0C2
:104C0000DFF8E81B08604FF47A7096FBF0F100FBC8
:104C10001160642190FBF1F0DFF8D41B0860642080
:104C200096FBF0F100FB11600A2190FBF1F0DFF838
:104C3000C41B0860642096FBF0F100FB11600A21A0
:104C400090FBF1F201FB1200DFF8AC1B0860DFF80B
:104C50009C0B006800281AD0DFF8900B006800F069
:104C600046FD0090DFF8880B006800F040FD0190E1
:104C7000DFF8800B006800F03AFD0290DFF8780B57
:104C8000006800F034FD039000200490E5E0DFF8B8
:104C9000600B0068002816D0DFF8540B006800F0A5
:104CA00026FD0090DFF84C0B006800F020FD01901D
:104CB000DFF8440B006800F01AFD0290002003901A
:104CC00000200490C9E0DFF82C0B0068002812D007
:104CD000DFF8200B006800F00AFD0090DFF8180BE9
:104CE000006800F004FD0190002002900020039075
:104CF00000200490B1E0DFF8000B006800280ED01F
:104D0000DFF8F40A006800F0F2FC00900020019047
:104D10000020029000200390002004909DE00020DD
:104D200000F0E5FC0090002001900020029000209F
:104D300003900020049090E076424FF47A7096FB46
:104D4000F0F0DFF8A81A08604FF47A7096FBF0F1E3
:104D500000FB1160642190FBF1F0DFF8941A086009
:104D6000642096FBF0F100FB11600A2190FBF1F04A
:104D7000DFF8801A0860642096FBF0F100FB1160F8
:104D80000A2190FBF1F201FB1200DFF86C1A0860B7
:104D9000DFF8580A006800281AD00D200090DFF8CC
:104DA0004C0A006800F0A3FC0190DFF8440A006898
:104DB00000F09DFC0290DFF83C0A006800F097FCD0
:104DC0000390DFF8340A006800F091FC049044E09E
:104DD000DFF81C0A0068002816D00D200090DFF8CC
:104DE000100A006800F083FC0190DFF8080A0068F0
:104DF00000F07DFC0290DFF8000A006800F077FC0C
:104E000003900020049028E0DFF8E80900680028FB
:104E100012D00D200090DFF8DC09006800F067FC7C
:104E20000190DFF8D409006800F061FC02900020D6
:104E300003900020049010E0DFF8BC09006800280F
:104E40000BD00D200090002000F051FC01900020BC
:104E50000290002003900020049000200700002012
:104E60008046002081465FFA89F919F80A00002877
:104E70002BD05FFA89F919F80A0020380700E4B24C
:104E80007F2C02DB002004006D1C2900C9B2200029
:104E9000C0B2FFF75DFD002080465FFA88F8B8F1E8
:104EA000060F0EDADFF84009FFB2062101FB07000A
:104EB0005FFA88F818F80000FFF7CCFC18F1010839
:104EC000EBE7A41D19F10109CDE700200700002040
:104ED0008046002081465FFA89F9B9F1050F2BDA87
:104EE00068465FFA89F950F829000700E4B27F2C80
:104EF00002DB002004006D1C2900C9B22000C0B2F2
:104F0000FFF726FD002080465FFA88F8B8F1060F0B
:104F10000EDADFF8D408FFB2062101FB07005FFAC2
:104F200088F818F80000FFF795FC18F10108EBE786
:104F3000A41D19F10109CEE706B0BDE8F0872DE9FF
:104F4000F04786B004000D0092461E0000275FF077
:104F500000085FF0000968461821FEF763FB300087
:104F6000FEF7A6FE4FF47A7190FBF1F201FB1200FE
:104F7000642190FBF1F0DFF8781808603000FEF74C
:104F800097FE642190FBF1F201FB12000A2190FBD5
:104F9000F1F0DFF8601808603000FEF789FE642148
:104FA00090FBF1F201FB12000A2190FBF1F201FBF0
:104FB0001200DFF844180860DFF8F809310000F04B
:104FC000DFFDFEF775FE0A2190FBF1F201FB1200F6
:104FD000DFF8E4190860DFF8E409310000F0D0FDE3
:104FE000FEF766FE0A2190FBF1F201FB1200DFF8EA
:104FF000D0190860DFF8F8070068002820D0DFF833
:10500000F007006800F073FB0090DFF8E807006825
:1050100000F06DFB0190DFF8E007006800F067FB2F
:1050200002900E200390DFF89009006800F05FFB0B
:105030000490DFF88C09006800F059FB059053E0FC
:10504000DFF8B007006800281CD0DFF8A807006868
:1050500000F04DFB0090DFF8A007006800F047FB70
:1050600001900E200290DFF85009006800F03FFB2D
:105070000390DFF84C09006800F039FB0490002031
:10508000059031E0DFF870070068002818D0DFF8DD
:105090006807006800F02BFB00900E200190DFF8FD
:1050A0001809006800F023FB0290DFF8140900687B
:1050B00000F01DFB0390002004900020059013E0F9
:1050C000102000900E200190DFF8EC08006800F03E
:1050D0000EFB0290DFF8E808006800F008FB039080
:1050E000002004900020059000200700002080464A
:1050F000002081465FFA89F919F80A0000282BD0B0
:105100005FFA89F919F80A0020380700E4B27F2C09
:1051100002DB002004006D1C2900C9B22000C0B2CF
:10512000FFF716FC002080465FFA88F8B8F1060FFA
:105130000EDADFF8B406FFB2062101FB07005FFAC2
:1051400088F818F80000FFF785FB18F10108EBE775
:10515000A41D19F10109CDE70020070000208046B9
:10516000002081465FFA89F9B9F1060F2BDA68460B
:105170005FFA89F950F829000700E4B27F2C02DBBE
:10518000002004006D1C2900C9B22000C0B2FFF746
:10519000DFFB002080465FFA88F8B8F1060F0EDAD0
:1051A000DFF84406FFB2062101FB07005FFA88F82A
:1051B00018F80000FFF74EFB18F10108EBE7A41DFB
:1051C00019F10109CEE706B0BDE8F0872DE9F047F7
:1051D000ADF5705D00240025002600275FF0000873
:1051E00068464FF47051FEF71DFADFF8D897DFF8E4
:1051F000D4A700200400402C2CDADFF8C8071921BE
:1052000001FB04008146DFF8BC07192101FB040003
:105210001830824600200700D14519D299F80000C5
:10522000002815D099F80100002811D099F8000045
:10523000050099F80100854207DA01206946F0224D
:1052400002FB041168546D1CF3E719F10209E3E74E
:10525000641CD0E700200400402C21DA0020060066
:10526000782E1BDA6846F02101FB040010F81600C6
:10527000002808D16846F02101FB040010EB46002D
:105280004078002801D0012000E000206946F0228B
:1052900002FB041101F81600761CE1E7641CDBE751
:1052A00000200400082C69DA20000100C9B20420A3
:1052B000FFF74EFB00200700782F5DDA68464FF4B9
:1052C000F06101FB040010F8170069464FF4F0622A
:1052D00002FB041111EB470191F8F010490051FA5B
:1052E00080F069464FF4F06202FB041111EB4701B4
:1052F00091F8E01110EB810069464FF4F06202FB77
:10530000041111EB470191F8D01210EBC10069466E
:105310004FF4F06202FB041111EB470191F8C01346
:1053200010EB011069464FF4F06202FB041111EB1F
:10533000470191F8B01410EB411069464FF4F06248
:1053400002FB041111EB470191F8A015402202FB6A
:10535000010069464FF4F06202FB041111EB4701B2
:1053600091F89016802202FB010080464046C0B2B0
:10537000FFF770FA7F1C9FE7641C93E70DF5705DE3
:10538000BDE8F08700000000D005FF1F2DE9F047C1
:10539000ADF5705D00240025002600275FF00008B1
:1053A00068464FF47051FEF73DF9DFF81896DFF8C4
:1053B00014A626200400662C2FDADFF8080619212F
:1053C00001FB04008146DFF8FC05192101FB040004
:1053D0001830824600200700D1451CD299F8000001
:1053E000002818D099F80100002814D099F800007E
:1053F000050099F8010085420ADA6846F02101FBB0
:1054000004002818DFF8C01501220A546D1CF0E7CB
:1054100019F10209E0E7641CCDE700200400402CEC
:1054200021DA00200600782E1BDA6846F02101FB05
:10543000040010F81600002808D16846F02101FB8E
:10544000040010EB46004078002801D0012000E065
:1054500000206946F02202FB041101F81600761CB8
:10546000E1E7641CDBE700200400082C69DA200077
:105470000100C9B20420FFF76BFA00200700782F63
:105480005DDA68464FF4F06101FB040010F8170084
:1054900069464FF4F06202FB041111EB470191F8E9
:1054A000F010490051FA80F069464FF4F06202FBB7
:1054B000041111EB470191F8E01110EB81006946EE
:1054C0004FF4F06202FB041111EB470191F8D01286
:1054D00010EBC10069464FF4F06202FB041111EBBE
:1054E000470191F8C01310EB011069464FF4F062C8
:1054F00002FB041111EB470191F8B01410EB4110BD
:1055000069464FF4F06202FB041111EB470191F878
:10551000A015402202FB010069464FF4F06202FB35
:10552000041111EB470191F89016802202FB010053
:1055300080464046C0B2FFF78DF97F1C9FE7641C90
:1055400093E70DF5705DBDE8F08710B500210020F0
:10555000FFF7FEF900200400032C04DA0020FFF717
:1055600079F9641CF8E701210020FFF7F1F9002028
:105570000400032C04DA0220FFF76CF9641CF8E73E
:1055800002210020FFF7E4F900200400032C04DAD4
:105590000820FFF75FF9641CF8E703210020FFF7FC
:1055A000D7F900200400032C04DA2020FFF752F979
:1055B000641CF8E704210020FFF7CAF9002004006A
:1055C000032C04DA8020FFF745F9641CF8E7052175
:1055D0000020FFF7BDF900200400032C04DA0020AE
:1055E000FFF738F9641CF8E706210020FFF7B0F94F
:1055F00000200400032C04DA0220FFF72BF9641CBE
:10560000F8E707210020FFF7A3F900200400032C8E
:1056100004DAF820FFF71EF9641CF8E700217D206A
:10562000FFF796F900200400032C04DA0020FFF7AE
:1056300011F9641CF8E701217D20FFF789F90020AA
:105640000400032C04DA0220FFF704F9641CF8E7D5
:1056500002217D20FFF77CF900200400032C04DAEE
:105660000820FFF7F7F8641CF8E703217D20FFF717
:105670006FF900200400032C04DA2020FFF7EAF879
:10568000641CF8E704217D20FFF762F90020040084
:10569000032C04DA8020FFF7DDF8641CF8E705210D
:1056A0007D20FFF755F900200400032C04DA0020C8
:1056B000FFF7D0F8641CF8E706217D20FFF748F9D2
:1056C00000200400032C04DA0220FFF7C3F8641C56
:1056D000F8E707217D20FFF73BF900200400032CA9
:1056E00004DAF820FFF7B6F8641CF8E710BD0100F3
:1056F00000290ED0022910D00DD3042911D00ED3C9
:10570000062912D00FD3082913D010D3092912D09B
:1057100013E0102012E0112010E012200EE0132000
:105720000CE014200AE0152008E0162006E01720FF
:1057300004E0182002E0192000E00420704780B542
:105740000420A24908605820FEF761FDFFF761F9C7
:1057500004209E4908605820FEF70FFD4FF47A6040
:1057600000F0C6FA0020FFF70BF901BD10B50024C8
:1057700000F0A2FB00200400022C33DA9448205CE5
:10578000012812D193480068401C92490860914852
:105790000068072802DB00208E4908604FF47A6019
:1057A00000F0A6FAFFF70EF91AE08948205C0428F9
:1057B00016D188480068002803D106208549086072
:1057C00008E084480068012804DB82480068401E25
:1057D000804908604FF47A6000F08AFAFFF7F2F827
:1057E000641CC9E710BD0000B4B900009048FF1F59
:1057F0009448FF1F9848FF1F9C48FF1F10B50400E6
:10580000002C0DD0022C75D03FD3042C00F09D80CD
:10581000C0F09080062C00F0C980C0F0C480C8E0C1
:105820006D4A00210520FFF790F96C4A01210520FF
:10583000FFF78BF96A4803686A4A02210520FFF7DF
:10584000C8F967480368684A03210520FFF7C1F9D2
:1058500066480368664A04210520FFF7BAF96548DF
:105860000368654A05210520FFF7B3F9634803780B
:10587000634A06210520FFF7ACF962480368624AD3
:1058800007210520FFF7A5F993E0534A00210520E1
:10589000FFF75BF95D4A01210520FFF756F95C48E7
:1058A00003785C4A02210520FFF793F95A48036800
:1058B0005A4A03210520FFF78CF957484368584A94
:1058C00004210520FFF785F953488368554A0521CF
:1058D0000520FFF77EF954480368544A0621052045
:1058E000FFF777F952480368524A07210520FFF76E
:1058F00070F95EE0384A00210520FFF726F94E4A8C
:1059000001210520FFF721F94C4803784C4A022178
:105910000520FFF75EF94B4803784B4A0321052029
:10592000FFF757F949480378494A04210520FFF752
:1059300050F93EE0284A00210520FFF706F9454AC4
:1059400001210520FFF701F933E0234A002105205A
:10595000FFF7FBF8404A01210520FFF7F6F83F4822
:1059600003683F4A02210520FFF7E9FA3D48036832
:105970003D4A03210520FFF7E2FA3C4803683C4A10
:1059800004210520FFF7DBFA3A4803783A4A05215B
:105990000520FFF71EF939480378394A062105200A
:1059A000FFF717F905E0FFF711FC02E0FFF7EEFC47
:1059B000FFE710BD00002041A048FF1F0000C842C3
:1059C000A448FF1FC407FF1F60DCFFFFA0A0044026
:1059D0007448FF1FA848FF1FC0C90000B0CA0000DC
:1059E0009407FF1FB0CC0000B8CC0000B844FF1FE4
:1059F000D0CB0000BC44FF1FDCCB0000DD48FF1F04
:105A0000E8CB0000E844FF1FC0CC0000D4C9000070
:105A1000D848FF1FF4CB00002C48FF1F00CC00002B
:105A20000CCC000018CC0000E444FF1F24CC000084
:105A30007C07FF1F30CC0000E8C90000E048FF1FD2
:105A40003CCC0000DF48FF1F48CC0000F148FF1F9E
:105A5000C8CC0000C0CA0000FCC900008C07FF1FB2
:105A600054CC00008807FF1F60CC00009007FF1F88
:105A7000D0CC0000E148FF1FD0CA0000E848FF1F5B
:105A8000E0CA0000F8B504000D0016001F00EDB2DA
:105A9000202D02D2FFB2022F03D32421354801F07A
:105AA00021F8F6B2022E02D0F6B2122E0AD13248F6
:105AB000E4B250F82400EDB2F6B256F4817140F829
:105AC00025100AE02C48E4B250F82400EDB2F6B2FA
:105AD00040F20311314340F82510F00705D5F6B226
:105AE000032E02D0F6B2132E0DD12448E4B250F8A2
:105AF000240040690121A94088432049E4B251F8BB
:105B0000241048612AE01D48E4B250F8240040699E
:105B10000121A94008431949E4B251F82410486111
:105B2000FFB2012F0DD11548E4B250F824000068EF
:105B30000121A94008431149E4B251F8241008603A
:105B40000CE00E48E4B250F8240000680121A9409E
:105B500088430A49E4B251F824100860F1BD074AAD
:105B6000C0B252F820000069C84010F00100704730
:105B700000000000A4C60000E405FF1FD005FF1FC1
:105B8000FF2212EAD05C1DBF12EAD1539445934222
:105B90002BE09C44D30780EA01021A4043EA00202C
:105BA00043EA0121A1FB0030410038BF40007CF1F5
:105BB0007F010BDBFE294ADA5B0842EAC15153EA56
:105BC000006373F1004C51EB10207047D1F1080CC9
:105BD000DCF120012FDB5B0810FA01F10B4373F1BC
:105BE000004120FA0CF05041704794451CBF02EA76
:105BF000D153934280EA010202F000421DD04000DE
:105C000019D0490017D05BB9634514D00902B1FA25
:105C100081F39940BCEB030CC00140F00040C1E7A8
:105C20000002B0FA80FC10FA0CF0B3EB0C0CC901C6
:105C300041F00041B6E71000704740000AD049002B
:105C400008D010F1807F94BF11F1807F02E042F014
:105C5000FF407047D043704780B5002301220421E4
:105C60000220FFF70FFF0023012205210220FFF78A
:105C700009FF0023012207210220FFF703FFDFF8BD
:105C8000480B8068006850F02000DFF83C1B8968F2
:105C90000860DFF8340B8068006850F08000DFF89F
:105CA000281B89680860DFF8200B8068006850F0C6
:105CB0001000DFF8141B8968086001BD30B40100D2
:105CC00000200022012300242200052A0DDA545C62
:105CD0002D2C03D15FF0FF34230004E00A24555C2F
:105CE00004FB00503038521CEFE7584330BC70477B
